{
  "contractName": "SimpleStorage",
  "abi": [
    {
      "inputs": [
        {
          "internalType": "uint256",
          "name": "",
          "type": "uint256"
        }
      ],
      "name": "people",
      "outputs": [
        {
          "internalType": "uint256",
          "name": "favoriteNumber",
          "type": "uint256"
        },
        {
          "internalType": "string",
          "name": "name",
          "type": "string"
        }
      ],
      "stateMutability": "view",
      "type": "function"
    },
    {
      "inputs": [
        {
          "internalType": "uint256",
          "name": "",
          "type": "uint256"
        }
      ],
      "name": "person",
      "outputs": [
        {
          "internalType": "uint256",
          "name": "favoriteNumber",
          "type": "uint256"
        },
        {
          "internalType": "string",
          "name": "name",
          "type": "string"
        }
      ],
      "stateMutability": "view",
      "type": "function"
    },
    {
      "inputs": [
        {
          "internalType": "string",
          "name": "_name",
          "type": "string"
        },
        {
          "internalType": "uint256",
          "name": "_favoriteNumber",
          "type": "uint256"
        }
      ],
      "name": "addPerson",
      "outputs": [],
      "stateMutability": "nonpayable",
      "type": "function"
    }
  ],
  "bytecode": "0x608060405234801561001057600080fd5b506105a5806100206000396000f3fe608060405234801561001057600080fd5b50600436106100415760003560e01c8063092a1820146100465780636f760f41146100f45780639e7a13ad146101b9575b600080fd5b6100726004803603602081101561005c57600080fd5b8101908080359060200190929190505050610267565b6040518083815260200180602001828103825283818151815260200191508051906020019080838360005b838110156100b857808201518184015260208101905061009d565b50505050905090810190601f1680156100e55780820380516001836020036101000a031916815260200191505b50935050505060405180910390f35b6101b76004803603604081101561010a57600080fd5b810190808035906020019064010000000081111561012757600080fd5b82018360208201111561013957600080fd5b8035906020019184600183028401116401000000008311171561015b57600080fd5b91908080601f016020809104026020016040519081016040528093929190818152602001838380828437600081840152601f19601f82011690508083019250505050505050919291929080359060200190929190505050610326565b005b6101e5600480360360208110156101cf57600080fd5b8101908080359060200190929190505050610401565b6040518083815260200180602001828103825283818151815260200191508051906020019080838360005b8381101561022b578082015181840152602081019050610210565b50505050905090810190601f1680156102585780820380516001836020036101000a031916815260200191505b50935050505060405180910390f35b6000816001811061027457fe5b60020201600091509050806000015490806001018054600181600116156101000203166002900480601f01602080910402602001604051908101604052809291908181526020018280546001816001161561010002031660029004801561031c5780601f106102f15761010080835404028352916020019161031c565b820191906000526020600020905b8154815290600101906020018083116102ff57829003601f168201915b5050505050905082565b6002604051806040016040528083815260200184815250908060018154018082558091505060019003906000526020600020906002020160009091909190915060008201518160000155602082015181600101908051906020019061038c9291906104ca565b505050806003836040518082805190602001908083835b602083106103c657805182526020820191506020810190506020830392506103a3565b6001836020036101000a0380198251168184511680821785525050505050509050019150509081526020016040518091039020819055505050565b6002818154811061040e57fe5b9060005260206000209060020201600091509050806000015490806001018054600181600116156101000203166002900480601f0160208091040260200160405190810160405280929190818152602001828054600181600116156101000203166002900480156104c05780601f10610495576101008083540402835291602001916104c0565b820191906000526020600020905b8154815290600101906020018083116104a357829003601f168201915b5050505050905082565b828054600181600116156101000203166002900490600052602060002090601f016020900481019282601f1061050b57805160ff1916838001178555610539565b82800160010185558215610539579182015b8281111561053857825182559160200191906001019061051d565b5b509050610546919061054a565b5090565b61056c91905b80821115610568576000816000905550600101610550565b5090565b9056fea26469706673582212204a0a9b3c3292373e5f452e2c0a1b4446d0d30b460606c22907e83d1e71fb872064736f6c63430006060033",
  "immutableReferences": {},
  "source": "//SPDX-License-Identifier: MIT\r\npragma solidity >=0.4.22 <0.9.0;\r\n\r\ncontract SimpleStorage {\r\n\r\n    struct People {\r\n        uint256 favoriteNumber;\r\n        string name;\r\n    } \r\n\r\n    //fixed array with maximum of one person\r\n    People[1] public person;\r\n\r\n    //dynamic array that can hold a list of people\r\n    People[] public people;\r\n\r\n    //mapping\r\n    mapping(string => uint256) nameToFavoriteNumber;\r\n\r\n    //There are two ways to store information - memory and storage. Data stored in memory is execution based while data stored in storage is persistent. \r\n    function addPerson(string memory _name, uint256 _favoriteNumber) public {\r\n        //create a people object and push it into people array\r\n        people.push(People({favoriteNumber: _favoriteNumber, name: _name}));\r\n        nameToFavoriteNumber[_name] = _favoriteNumber;\r\n    }\r\n\r\n}",
  "sourcePath": "C:\\Users\\angel\\Code\\solidity-storage-factory\\contracts\\SimpleStorage.sol",
  "compiler": {
    "name": "solc",
    "version": "0.6.6+commit.6c089d02.Emscripten.clang"
  },
  "schemaVersion": "3.4.3",
  "updatedAt": "2021-09-19T01:49:30.317Z",
  "devdoc": {
    "methods": {}
  },
  "userdoc": {
    "methods": {}
  }
}