{
  "contractName": "StorageFactory",
  "abi": [
    {
      "inputs": [
        {
          "internalType": "uint256",
          "name": "",
          "type": "uint256"
        }
      ],
      "name": "simpleStorageArray",
      "outputs": [
        {
          "internalType": "contract SimpleStorage",
          "name": "",
          "type": "address"
        }
      ],
      "stateMutability": "view",
      "type": "function"
    },
    {
      "inputs": [],
      "name": "createSimpleStorageContract",
      "outputs": [],
      "stateMutability": "nonpayable",
      "type": "function"
    },
    {
      "inputs": [
        {
          "internalType": "uint256",
          "name": "_simpleStorageIndex",
          "type": "uint256"
        },
        {
          "internalType": "uint256",
          "name": "_simpleStorageNumber",
          "type": "uint256"
        }
      ],
      "name": "storageFactoryStore",
      "outputs": [],
      "stateMutability": "nonpayable",
      "type": "function"
    },
    {
      "inputs": [
        {
          "internalType": "uint256",
          "name": "_simpleStorageIndex",
          "type": "uint256"
        }
      ],
      "name": "storageFactoryGet",
      "outputs": [
        {
          "internalType": "uint256",
          "name": "",
          "type": "uint256"
        }
      ],
      "stateMutability": "view",
      "type": "function"
    }
  ],
  "bytecode": "0x608060405234801561001057600080fd5b50610a39806100206000396000f3fe608060405234801561001057600080fd5b506004361061004c5760003560e01c8063051a6226146100515780631dda6541146100895780635558a3e81461009357806364591bf1146100d5575b600080fd5b6100876004803603604081101561006757600080fd5b810190808035906020019092919080359060200190929190505050610143565b005b610091610227565b005b6100bf600480360360208110156100a957600080fd5b81019080803590602001909291905050506102ba565b6040518082815260200191505060405180910390f35b610101600480360360208110156100eb57600080fd5b8101908080359060200190929190505050610380565b604051808273ffffffffffffffffffffffffffffffffffffffff1673ffffffffffffffffffffffffffffffffffffffff16815260200191505060405180910390f35b600080838154811061015157fe5b9060005260206000200160009054906101000a900473ffffffffffffffffffffffffffffffffffffffff1690508073ffffffffffffffffffffffffffffffffffffffff16636f760f41836040518263ffffffff1660e01b81526004018080602001838152602001828103825260078152602001807f416e67656c65650000000000000000000000000000000000000000000000000081525060200192505050600060405180830381600087803b15801561020a57600080fd5b505af115801561021e573d6000803e3d6000fd5b50505050505050565b6000604051610235906103bc565b604051809103906000f080158015610251573d6000803e3d6000fd5b5090506000819080600181540180825580915050600190039060005260206000200160009091909190916101000a81548173ffffffffffffffffffffffffffffffffffffffff021916908373ffffffffffffffffffffffffffffffffffffffff16021790555050565b600080600083815481106102ca57fe5b9060005260206000200160009054906101000a900473ffffffffffffffffffffffffffffffffffffffff1690508073ffffffffffffffffffffffffffffffffffffffff16632e64cec16040518163ffffffff1660e01b815260040160206040518083038186803b15801561033d57600080fd5b505afa158015610351573d6000803e3d6000fd5b505050506040513d602081101561036757600080fd5b8101908080519060200190929190505050915050919050565b6000818154811061038d57fe5b906000526020600020016000915054906101000a900473ffffffffffffffffffffffffffffffffffffffff1681565b61063a806103ca8339019056fe608060405234801561001057600080fd5b5061061a806100206000396000f3fe608060405234801561001057600080fd5b50600436106100575760003560e01c8063092a18201461005c5780632e64cec11461010a5780636057361d146101285780636f760f41146101565780639e7a13ad1461021b575b600080fd5b6100886004803603602081101561007257600080fd5b81019080803590602001909291905050506102c9565b6040518083815260200180602001828103825283818151815260200191508051906020019080838360005b838110156100ce5780820151818401526020810190506100b3565b50505050905090810190601f1680156100fb5780820380516001836020036101000a031916815260200191505b50935050505060405180910390f35b610112610388565b6040518082815260200191505060405180910390f35b6101546004803603602081101561013e57600080fd5b8101908080359060200190929190505050610391565b005b6102196004803603604081101561016c57600080fd5b810190808035906020019064010000000081111561018957600080fd5b82018360208201111561019b57600080fd5b803590602001918460018302840111640100000000831117156101bd57600080fd5b91908080601f016020809104026020016040519081016040528093929190818152602001838380828437600081840152601f19601f8201169050808301925050505050505091929192908035906020019092919050505061039b565b005b6102476004803603602081101561023157600080fd5b8101908080359060200190929190505050610476565b6040518083815260200180602001828103825283818151815260200191508051906020019080838360005b8381101561028d578082015181840152602081019050610272565b50505050905090810190601f1680156102ba5780820380516001836020036101000a031916815260200191505b50935050505060405180910390f35b600181600181106102d657fe5b60020201600091509050806000015490806001018054600181600116156101000203166002900480601f01602080910402602001604051908101604052809291908181526020018280546001816001161561010002031660029004801561037e5780601f106103535761010080835404028352916020019161037e565b820191906000526020600020905b81548152906001019060200180831161036157829003601f168201915b5050505050905082565b60008054905090565b8060008190555050565b6003604051806040016040528083815260200184815250908060018154018082558091505060019003906000526020600020906002020160009091909190915060008201518160000155602082015181600101908051906020019061040192919061053f565b505050806004836040518082805190602001908083835b6020831061043b5780518252602082019150602081019050602083039250610418565b6001836020036101000a0380198251168184511680821785525050505050509050019150509081526020016040518091039020819055505050565b6003818154811061048357fe5b9060005260206000209060020201600091509050806000015490806001018054600181600116156101000203166002900480601f0160208091040260200160405190810160405280929190818152602001828054600181600116156101000203166002900480156105355780601f1061050a57610100808354040283529160200191610535565b820191906000526020600020905b81548152906001019060200180831161051857829003601f168201915b5050505050905082565b828054600181600116156101000203166002900490600052602060002090601f016020900481019282601f1061058057805160ff19168380011785556105ae565b828001600101855582156105ae579182015b828111156105ad578251825591602001919060010190610592565b5b5090506105bb91906105bf565b5090565b6105e191905b808211156105dd5760008160009055506001016105c5565b5090565b9056fea264697066735822122065f39070a123b7c749a782fa27467e15ca1e4d2a01d41cdfb2d79a03b3c9215a64736f6c63430006060033a26469706673582212207f816687f9469c66769e37488c1942feccb364b7c7bc272202422406f5f9f21864736f6c63430006060033",
  "immutableReferences": {},
  "source": "//SPDX-License-Identifier: MIT\r\npragma solidity >=0.4.22 <0.9.0;\r\n\r\n//import SimpleStorage contract to be deployed\r\nimport \"./SimpleStorage.sol\";\r\n\r\ncontract StorageFactory {\r\n\r\n    SimpleStorage[] public simpleStorageArray;\r\n\r\n    function createSimpleStorageContract() public {\r\n        //new variable of type 'simpleStorage' object equals a new SimpleStorage contract with no parameters\r\n        SimpleStorage simpleStorage = new SimpleStorage();\r\n        //push 'simpleStorage' to the SimpleStorage array\r\n        simpleStorageArray.push(simpleStorage);\r\n    }\r\n\r\n    //anytime you want to interact with a contract, you need the address and the ABI\r\n    function storageFactoryStore(uint256 _simpleStorageIndex, uint256 _simpleStorageNumber) public {\r\n        //Address\r\n        SimpleStorage simpleStorage = SimpleStorage(address(simpleStorageArray[_simpleStorageIndex]));\r\n        simpleStorage.addPerson(\"Angelee\", _simpleStorageNumber);\r\n        //Application Binary Interface comes from the import above\r\n    }\r\n\r\n    function storageFactoryGet(uint256 _simpleStorageIndex) public view returns(uint256) {\r\n        SimpleStorage simpleStorage = SimpleStorage(address(simpleStorageArray[_simpleStorageIndex]));\r\n        return simpleStorage.retrieve();\r\n    }\r\n\r\n}",
  "sourcePath": "C:\\Users\\angel\\Code\\solidity-storage-factory\\contracts\\StorageFactory.sol",
  "compiler": {
    "name": "solc",
    "version": "0.6.6+commit.6c089d02.Emscripten.clang"
  },
  "schemaVersion": "3.4.3",
  "updatedAt": "2021-09-19T19:34:28.001Z",
  "devdoc": {
    "methods": {}
  },
  "userdoc": {
    "methods": {}
  }
}