{
  "contractName": "StorageFactory",
  "abi": [
    {
      "inputs": [
        {
          "internalType": "uint256",
          "name": "",
          "type": "uint256"
        }
      ],
      "name": "simpleStorageArray",
      "outputs": [
        {
          "internalType": "contract SimpleStorage",
          "name": "",
          "type": "address"
        }
      ],
      "stateMutability": "view",
      "type": "function"
    },
    {
      "inputs": [],
      "name": "createSimpleStorageContract",
      "outputs": [],
      "stateMutability": "nonpayable",
      "type": "function"
    },
    {
      "inputs": [
        {
          "internalType": "uint256",
          "name": "_simpleStorageIndex",
          "type": "uint256"
        },
        {
          "internalType": "uint256",
          "name": "_simpleStorageNumber",
          "type": "uint256"
        }
      ],
      "name": "storageFactoryStore",
      "outputs": [],
      "stateMutability": "nonpayable",
      "type": "function"
    }
  ],
  "bytecode": "0x608060405234801561001057600080fd5b506107d1806100206000396000f3fe608060405234801561001057600080fd5b50600436106100415760003560e01c8063051a6226146100465780631dda65411461007e57806364591bf114610088575b600080fd5b61007c6004803603604081101561005c57600080fd5b8101908080359060200190929190803590602001909291905050506100f6565b005b6100866100fa565b005b6100b46004803603602081101561009e57600080fd5b810190808035906020019092919050505061018d565b604051808273ffffffffffffffffffffffffffffffffffffffff1673ffffffffffffffffffffffffffffffffffffffff16815260200191505060405180910390f35b5050565b6000604051610108906101c9565b604051809103906000f080158015610124573d6000803e3d6000fd5b5090506000819080600181540180825580915050600190039060005260206000200160009091909190916101000a81548173ffffffffffffffffffffffffffffffffffffffff021916908373ffffffffffffffffffffffffffffffffffffffff16021790555050565b6000818154811061019a57fe5b906000526020600020016000915054906101000a900473ffffffffffffffffffffffffffffffffffffffff1681565b6105c5806101d78339019056fe608060405234801561001057600080fd5b506105a5806100206000396000f3fe608060405234801561001057600080fd5b50600436106100415760003560e01c8063092a1820146100465780636f760f41146100f45780639e7a13ad146101b9575b600080fd5b6100726004803603602081101561005c57600080fd5b8101908080359060200190929190505050610267565b6040518083815260200180602001828103825283818151815260200191508051906020019080838360005b838110156100b857808201518184015260208101905061009d565b50505050905090810190601f1680156100e55780820380516001836020036101000a031916815260200191505b50935050505060405180910390f35b6101b76004803603604081101561010a57600080fd5b810190808035906020019064010000000081111561012757600080fd5b82018360208201111561013957600080fd5b8035906020019184600183028401116401000000008311171561015b57600080fd5b91908080601f016020809104026020016040519081016040528093929190818152602001838380828437600081840152601f19601f82011690508083019250505050505050919291929080359060200190929190505050610326565b005b6101e5600480360360208110156101cf57600080fd5b8101908080359060200190929190505050610401565b6040518083815260200180602001828103825283818151815260200191508051906020019080838360005b8381101561022b578082015181840152602081019050610210565b50505050905090810190601f1680156102585780820380516001836020036101000a031916815260200191505b50935050505060405180910390f35b6000816001811061027457fe5b60020201600091509050806000015490806001018054600181600116156101000203166002900480601f01602080910402602001604051908101604052809291908181526020018280546001816001161561010002031660029004801561031c5780601f106102f15761010080835404028352916020019161031c565b820191906000526020600020905b8154815290600101906020018083116102ff57829003601f168201915b5050505050905082565b6002604051806040016040528083815260200184815250908060018154018082558091505060019003906000526020600020906002020160009091909190915060008201518160000155602082015181600101908051906020019061038c9291906104ca565b505050806003836040518082805190602001908083835b602083106103c657805182526020820191506020810190506020830392506103a3565b6001836020036101000a0380198251168184511680821785525050505050509050019150509081526020016040518091039020819055505050565b6002818154811061040e57fe5b9060005260206000209060020201600091509050806000015490806001018054600181600116156101000203166002900480601f0160208091040260200160405190810160405280929190818152602001828054600181600116156101000203166002900480156104c05780601f10610495576101008083540402835291602001916104c0565b820191906000526020600020905b8154815290600101906020018083116104a357829003601f168201915b5050505050905082565b828054600181600116156101000203166002900490600052602060002090601f016020900481019282601f1061050b57805160ff1916838001178555610539565b82800160010185558215610539579182015b8281111561053857825182559160200191906001019061051d565b5b509050610546919061054a565b5090565b61056c91905b80821115610568576000816000905550600101610550565b5090565b9056fea26469706673582212204a0a9b3c3292373e5f452e2c0a1b4446d0d30b460606c22907e83d1e71fb872064736f6c63430006060033a264697066735822122084ba11e255e3df6b7f793db77af6a11822c11a29f007a9ec7464ef26dfd2fb1d64736f6c63430006060033",
  "immutableReferences": {},
  "source": "//SPDX-License-Identifier: MIT\r\npragma solidity >=0.4.22 <0.9.0;\r\n\r\n//import SimpleStorage contract to be deployed\r\nimport \"./SimpleStorage.sol\";\r\n\r\ncontract StorageFactory {\r\n\r\n    SimpleStorage[] public simpleStorageArray;\r\n\r\n    function createSimpleStorageContract() public {\r\n        SimpleStorage simpleStorage = new SimpleStorage();\r\n        simpleStorageArray.push(simpleStorage);\r\n    }\r\n\r\n    function storageFactoryStore(uint256 _simpleStorageIndex, uint256 _simpleStorageNumber) public {\r\n        //Address\r\n        //Application Binary Interface\r\n    }\r\n\r\n}",
  "sourcePath": "C:\\Users\\angel\\Code\\solidity-storage-factory\\contracts\\StorageFactory.sol",
  "compiler": {
    "name": "solc",
    "version": "0.6.6+commit.6c089d02.Emscripten.clang"
  },
  "schemaVersion": "3.4.3",
  "updatedAt": "2021-09-19T01:49:30.319Z",
  "devdoc": {
    "methods": {}
  },
  "userdoc": {
    "methods": {}
  }
}